{
  "_format": "hh-sol-artifact-1",
  "contractName": "MedicineContract",
  "sourceName": "contracts/MedicineContract.sol",
  "abi": [
    {
      "anonymous": false,
      "inputs": [
        {
          "indexed": true,
          "internalType": "bytes32",
          "name": "id",
          "type": "bytes32"
        },
        {
          "indexed": false,
          "internalType": "string",
          "name": "name",
          "type": "string"
        },
        {
          "indexed": false,
          "internalType": "uint256",
          "name": "minTemperature",
          "type": "uint256"
        },
        {
          "indexed": false,
          "internalType": "uint256",
          "name": "maxTemperature",
          "type": "uint256"
        }
      ],
      "name": "MedicineAdded",
      "type": "event"
    },
    {
      "anonymous": false,
      "inputs": [
        {
          "indexed": true,
          "internalType": "bytes32",
          "name": "id",
          "type": "bytes32"
        },
        {
          "indexed": false,
          "internalType": "uint256",
          "name": "timestamp",
          "type": "uint256"
        },
        {
          "indexed": false,
          "internalType": "uint256",
          "name": "currentTemperature",
          "type": "uint256"
        },
        {
          "indexed": false,
          "internalType": "string",
          "name": "location",
          "type": "string"
        },
        {
          "indexed": false,
          "internalType": "int256",
          "name": "latitude",
          "type": "int256"
        },
        {
          "indexed": false,
          "internalType": "int256",
          "name": "longitude",
          "type": "int256"
        }
      ],
      "name": "MedicineHistoryUpdated",
      "type": "event"
    },
    {
      "inputs": [
        {
          "internalType": "bytes32",
          "name": "_id",
          "type": "bytes32"
        },
        {
          "internalType": "string",
          "name": "_name",
          "type": "string"
        },
        {
          "internalType": "uint256",
          "name": "_minTemperature",
          "type": "uint256"
        },
        {
          "internalType": "uint256",
          "name": "_maxTemperature",
          "type": "uint256"
        }
      ],
      "name": "addMedicine",
      "outputs": [],
      "stateMutability": "nonpayable",
      "type": "function"
    },
    {
      "inputs": [
        {
          "internalType": "bytes32",
          "name": "_id",
          "type": "bytes32"
        },
        {
          "internalType": "uint256",
          "name": "_currentTemperature",
          "type": "uint256"
        },
        {
          "internalType": "string",
          "name": "_location",
          "type": "string"
        },
        {
          "internalType": "int256",
          "name": "_latitude",
          "type": "int256"
        },
        {
          "internalType": "int256",
          "name": "_longitude",
          "type": "int256"
        }
      ],
      "name": "addMedicineHistory",
      "outputs": [],
      "stateMutability": "nonpayable",
      "type": "function"
    },
    {
      "inputs": [
        {
          "internalType": "bytes32",
          "name": "_id",
          "type": "bytes32"
        }
      ],
      "name": "getMedicine",
      "outputs": [
        {
          "internalType": "string",
          "name": "name",
          "type": "string"
        },
        {
          "internalType": "uint256",
          "name": "minTemperature",
          "type": "uint256"
        },
        {
          "internalType": "uint256",
          "name": "maxTemperature",
          "type": "uint256"
        },
        {
          "internalType": "bool",
          "name": "condition",
          "type": "bool"
        },
        {
          "internalType": "bool",
          "name": "sold",
          "type": "bool"
        },
        {
          "internalType": "bytes32[]",
          "name": "history",
          "type": "bytes32[]"
        }
      ],
      "stateMutability": "view",
      "type": "function"
    },
    {
      "inputs": [
        {
          "internalType": "bytes32",
          "name": "_id",
          "type": "bytes32"
        }
      ],
      "name": "getMedicineHistory",
      "outputs": [
        {
          "components": [
            {
              "internalType": "uint256",
              "name": "timestamp",
              "type": "uint256"
            },
            {
              "internalType": "uint256",
              "name": "currentTemperature",
              "type": "uint256"
            },
            {
              "internalType": "string",
              "name": "location",
              "type": "string"
            },
            {
              "internalType": "int256",
              "name": "latitude",
              "type": "int256"
            },
            {
              "internalType": "int256",
              "name": "longitude",
              "type": "int256"
            }
          ],
          "internalType": "struct MedicineContract.HistoryDetail[]",
          "name": "",
          "type": "tuple[]"
        }
      ],
      "stateMutability": "view",
      "type": "function"
    },
    {
      "inputs": [
        {
          "internalType": "bytes32",
          "name": "_id",
          "type": "bytes32"
        }
      ],
      "name": "medicineExists",
      "outputs": [
        {
          "internalType": "bool",
          "name": "",
          "type": "bool"
        }
      ],
      "stateMutability": "view",
      "type": "function"
    },
    {
      "inputs": [
        {
          "internalType": "bytes32",
          "name": "",
          "type": "bytes32"
        }
      ],
      "name": "medicines",
      "outputs": [
        {
          "internalType": "string",
          "name": "name",
          "type": "string"
        },
        {
          "internalType": "uint256",
          "name": "minTemperature",
          "type": "uint256"
        },
        {
          "internalType": "uint256",
          "name": "maxTemperature",
          "type": "uint256"
        },
        {
          "internalType": "bool",
          "name": "condition",
          "type": "bool"
        },
        {
          "internalType": "bool",
          "name": "sold",
          "type": "bool"
        }
      ],
      "stateMutability": "view",
      "type": "function"
    },
    {
      "inputs": [
        {
          "internalType": "bytes32",
          "name": "_id",
          "type": "bytes32"
        },
        {
          "internalType": "bool",
          "name": "_sold",
          "type": "bool"
        }
      ],
      "name": "updateMedicineSoldStatus",
      "outputs": [],
      "stateMutability": "nonpayable",
      "type": "function"
    },
    {
      "inputs": [
        {
          "internalType": "bytes32",
          "name": "_id",
          "type": "bytes32"
        },
        {
          "internalType": "bool",
          "name": "_condition",
          "type": "bool"
        }
      ],
      "name": "updateMedicineStatus",
      "outputs": [],
      "stateMutability": "nonpayable",
      "type": "function"
    }
  ],
  "bytecode": "0x608060405234801561001057600080fd5b50611916806100206000396000f3fe608060405234801561001057600080fd5b50600436106100885760003560e01c8063cf0960291161005b578063cf0960291461013e578063d8a2369c1461015a578063ef52741714610176578063f2958e36146101aa57610088565b806302a99c791461008d5780630a1ffab9146100bd57806378892b9e146100f2578063c2809daf1461010e575b600080fd5b6100a760048036038101906100a29190610b9d565b6101c6565b6040516100b49190610be5565b60405180910390f35b6100d760048036038101906100d29190610b9d565b6101e8565b6040516100e996959493929190610d67565b60405180910390f35b61010c60048036038101906101079190610f37565b610379565b005b61012860048036038101906101239190610b9d565b61041f565b6040516101359190611164565b60405180910390f35b610158600480360381019061015391906111b2565b61061f565b005b610174600480360381019061016f91906111b2565b61069d565b005b610190600480360381019061018b9190610b9d565b61071b565b6040516101a19594939291906111f2565b60405180910390f35b6101c460048036038101906101bf9190611278565b6107f3565b005b6000806000808481526020019081526020016000206001015414159050919050565b6060600080600080606060008060008981526020019081526020016000209050600081600101540361024f576040517f08c379a00000000000000000000000000000000000000000000000000000000081526004016102469061135b565b60405180910390fd5b80600001816001015482600201548360030160009054906101000a900460ff168460030160019054906101000a900460ff1685600401858054610291906113aa565b80601f01602080910402602001604051908101604052809291908181526020018280546102bd906113aa565b801561030a5780601f106102df5761010080835404028352916020019161030a565b820191906000526020600020905b8154815290600101906020018083116102ed57829003601f168201915b505050505095508080548060200260200160405190810160405280929190818152602001828054801561035c57602002820191906000526020600020905b815481526020019060010190808311610348575b505050505090509650965096509650965096505091939550919395565b600080600086815260200190815260200160002060010154146103d1576040517f08c379a00000000000000000000000000000000000000000000000000000000081526004016103c890611427565b60405180910390fd5b6103dd84848484610a2b565b837ffc2cb794b3157e3cb54a3a7f9ed5f9758093b4ae3e1f857dc237e7587778946884848460405161041193929190611447565b60405180910390a250505050565b606060008060008481526020019081526020016000209050600081600101540361047e576040517f08c379a00000000000000000000000000000000000000000000000000000000081526004016104759061135b565b60405180910390fd5b6000816004018054905067ffffffffffffffff8111156104a1576104a0610de0565b5b6040519080825280602002602001820160405280156104da57816020015b6104c7610b24565b8152602001906001900390816104bf5790505b50905060005b82600401805490508110156106145782600601600084600401838154811061050b5761050a611485565b5b906000526020600020015481526020019081526020016000206040518060a00160405290816000820154815260200160018201548152602001600282018054610553906113aa565b80601f016020809104026020016040519081016040528092919081815260200182805461057f906113aa565b80156105cc5780601f106105a1576101008083540402835291602001916105cc565b820191906000526020600020905b8154815290600101906020018083116105af57829003601f168201915b50505050508152602001600382015481526020016004820154815250508282815181106105fc576105fb611485565b5b602002602001018190525080806001019150506104e0565b508092505050919050565b60008060008481526020019081526020016000209050600081600101540361067c576040517f08c379a00000000000000000000000000000000000000000000000000000000081526004016106739061135b565b60405180910390fd5b818160030160016101000a81548160ff021916908315150217905550505050565b6000806000848152602001908152602001600020905060008160010154036106fa576040517f08c379a00000000000000000000000000000000000000000000000000000000081526004016106f19061135b565b60405180910390fd5b818160030160006101000a81548160ff021916908315150217905550505050565b600060205280600052604060002060009150905080600001805461073e906113aa565b80601f016020809104026020016040519081016040528092919081815260200182805461076a906113aa565b80156107b75780601f1061078c576101008083540402835291602001916107b7565b820191906000526020600020905b81548152906001019060200180831161079a57829003601f168201915b5050505050908060010154908060020154908060030160009054906101000a900460ff16908060030160019054906101000a900460ff16905085565b600080600087815260200190815260200160002090506000816001015403610850576040517f08c379a00000000000000000000000000000000000000000000000000000000081526004016108479061135b565b60405180910390fd5b6000428686868660405160200161086b959493929190611532565b60405160208183030381529060405280519060200120905081600501600082815260200190815260200160002060009054906101000a900460ff16156108e6576040517f08c379a00000000000000000000000000000000000000000000000000000000081526004016108dd906115d9565b60405180910390fd5b81600401819080600181540180825580915050600190039060005260206000200160009091909190915055600182600501600083815260200190815260200160002060006101000a81548160ff0219169083151502179055506040518060a0016040528042815260200187815260200186815260200185815260200184815250826006016000838152602001908152602001600020600082015181600001556020820151816001015560408201518160020190816109a491906117a5565b506060820151816003015560808201518160040155905050867fe7cbd8391e408febc0ac1682715d8cedc5306194119e7386e3882f65170a1c4f42888888886040516109f4959493929190611886565b60405180910390a28160010154861080610a115750816002015486115b15610a2257610a21876000610aa6565b5b50505050505050565b6000806000868152602001908152602001600020905083816000019081610a5291906117a5565b5082816001018190555081816002018190555060018160030160006101000a81548160ff02191690831515021790555060008160030160016101000a81548160ff0219169083151502179055505050505050565b600080600084815260200190815260200160002090506000816001015403610b03576040517f08c379a0000000000000000000000000000000000000000000000000000000008152600401610afa9061135b565b60405180910390fd5b818160030160006101000a81548160ff021916908315150217905550505050565b6040518060a0016040528060008152602001600081526020016060815260200160008152602001600081525090565b6000604051905090565b600080fd5b600080fd5b6000819050919050565b610b7a81610b67565b8114610b8557600080fd5b50565b600081359050610b9781610b71565b92915050565b600060208284031215610bb357610bb2610b5d565b5b6000610bc184828501610b88565b91505092915050565b60008115159050919050565b610bdf81610bca565b82525050565b6000602082019050610bfa6000830184610bd6565b92915050565b600081519050919050565b600082825260208201905092915050565b60005b83811015610c3a578082015181840152602081019050610c1f565b60008484015250505050565b6000601f19601f8301169050919050565b6000610c6282610c00565b610c6c8185610c0b565b9350610c7c818560208601610c1c565b610c8581610c46565b840191505092915050565b6000819050919050565b610ca381610c90565b82525050565b600081519050919050565b600082825260208201905092915050565b6000819050602082019050919050565b610cde81610b67565b82525050565b6000610cf08383610cd5565b60208301905092915050565b6000602082019050919050565b6000610d1482610ca9565b610d1e8185610cb4565b9350610d2983610cc5565b8060005b83811015610d5a578151610d418882610ce4565b9750610d4c83610cfc565b925050600181019050610d2d565b5085935050505092915050565b600060c0820190508181036000830152610d818189610c57565b9050610d906020830188610c9a565b610d9d6040830187610c9a565b610daa6060830186610bd6565b610db76080830185610bd6565b81810360a0830152610dc98184610d09565b9050979650505050505050565b600080fd5b600080fd5b7f4e487b7100000000000000000000000000000000000000000000000000000000600052604160045260246000fd5b610e1882610c46565b810181811067ffffffffffffffff82111715610e3757610e36610de0565b5b80604052505050565b6000610e4a610b53565b9050610e568282610e0f565b919050565b600067ffffffffffffffff821115610e7657610e75610de0565b5b610e7f82610c46565b9050602081019050919050565b82818337600083830152505050565b6000610eae610ea984610e5b565b610e40565b905082815260208101848484011115610eca57610ec9610ddb565b5b610ed5848285610e8c565b509392505050565b600082601f830112610ef257610ef1610dd6565b5b8135610f02848260208601610e9b565b91505092915050565b610f1481610c90565b8114610f1f57600080fd5b50565b600081359050610f3181610f0b565b92915050565b60008060008060808587031215610f5157610f50610b5d565b5b6000610f5f87828801610b88565b945050602085013567ffffffffffffffff811115610f8057610f7f610b62565b5b610f8c87828801610edd565b9350506040610f9d87828801610f22565b9250506060610fae87828801610f22565b91505092959194509250565b600081519050919050565b600082825260208201905092915050565b6000819050602082019050919050565b610fef81610c90565b82525050565b600082825260208201905092915050565b600061101182610c00565b61101b8185610ff5565b935061102b818560208601610c1c565b61103481610c46565b840191505092915050565b6000819050919050565b6110528161103f565b82525050565b600060a0830160008301516110706000860182610fe6565b5060208301516110836020860182610fe6565b506040830151848203604086015261109b8282611006565b91505060608301516110b06060860182611049565b5060808301516110c36080860182611049565b508091505092915050565b60006110da8383611058565b905092915050565b6000602082019050919050565b60006110fa82610fba565b6111048185610fc5565b93508360208202850161111685610fd6565b8060005b85811015611152578484038952815161113385826110ce565b945061113e836110e2565b925060208a0199505060018101905061111a565b50829750879550505050505092915050565b6000602082019050818103600083015261117e81846110ef565b905092915050565b61118f81610bca565b811461119a57600080fd5b50565b6000813590506111ac81611186565b92915050565b600080604083850312156111c9576111c8610b5d565b5b60006111d785828601610b88565b92505060206111e88582860161119d565b9150509250929050565b600060a082019050818103600083015261120c8188610c57565b905061121b6020830187610c9a565b6112286040830186610c9a565b6112356060830185610bd6565b6112426080830184610bd6565b9695505050505050565b6112558161103f565b811461126057600080fd5b50565b6000813590506112728161124c565b92915050565b600080600080600060a0868803121561129457611293610b5d565b5b60006112a288828901610b88565b95505060206112b388828901610f22565b945050604086013567ffffffffffffffff8111156112d4576112d3610b62565b5b6112e088828901610edd565b93505060606112f188828901611263565b925050608061130288828901611263565b9150509295509295909350565b7f4d65646963696e6520646f6573206e6f74206578697374000000000000000000600082015250565b6000611345601783610c0b565b91506113508261130f565b602082019050919050565b6000602082019050818103600083015261137481611338565b9050919050565b7f4e487b7100000000000000000000000000000000000000000000000000000000600052602260045260246000fd5b600060028204905060018216806113c257607f821691505b6020821081036113d5576113d461137b565b5b50919050565b7f4d65646963696e6520616c726561647920657869737473000000000000000000600082015250565b6000611411601783610c0b565b915061141c826113db565b602082019050919050565b6000602082019050818103600083015261144081611404565b9050919050565b600060608201905081810360008301526114618186610c57565b90506114706020830185610c9a565b61147d6040830184610c9a565b949350505050565b7f4e487b7100000000000000000000000000000000000000000000000000000000600052603260045260246000fd5b6000819050919050565b6114cf6114ca82610c90565b6114b4565b82525050565b600081905092915050565b60006114eb82610c00565b6114f581856114d5565b9350611505818560208601610c1c565b80840191505092915050565b6000819050919050565b61152c6115278261103f565b611511565b82525050565b600061153e82886114be565b60208201915061154e82876114be565b60208201915061155e82866114e0565b915061156a828561151b565b60208201915061157a828461151b565b6020820191508190509695505050505050565b7f486973746f727920616c72656164792065786973747300000000000000000000600082015250565b60006115c3601683610c0b565b91506115ce8261158d565b602082019050919050565b600060208201905081810360008301526115f2816115b6565b9050919050565b60008190508160005260206000209050919050565b60006020601f8301049050919050565b600082821b905092915050565b60006008830261165b7fffffffffffffffffffffffffffffffffffffffffffffffffffffffffffffffff8261161e565b611665868361161e565b95508019841693508086168417925050509392505050565b6000819050919050565b60006116a261169d61169884610c90565b61167d565b610c90565b9050919050565b6000819050919050565b6116bc83611687565b6116d06116c8826116a9565b84845461162b565b825550505050565b600090565b6116e56116d8565b6116f08184846116b3565b505050565b5b81811015611714576117096000826116dd565b6001810190506116f6565b5050565b601f8211156117595761172a816115f9565b6117338461160e565b81016020851015611742578190505b61175661174e8561160e565b8301826116f5565b50505b505050565b600082821c905092915050565b600061177c6000198460080261175e565b1980831691505092915050565b6000611795838361176b565b9150826002028217905092915050565b6117ae82610c00565b67ffffffffffffffff8111156117c7576117c6610de0565b5b6117d182546113aa565b6117dc828285611718565b600060209050601f83116001811461180f57600084156117fd578287015190505b6118078582611789565b86555061186f565b601f19841661181d866115f9565b60005b8281101561184557848901518255600182019150602085019450602081019050611820565b86831015611862578489015161185e601f89168261176b565b8355505b6001600288020188555050505b505050505050565b6118808161103f565b82525050565b600060a08201905061189b6000830188610c9a565b6118a86020830187610c9a565b81810360408301526118ba8186610c57565b90506118c96060830185611877565b6118d66080830184611877565b969550505050505056fea26469706673582212200cc1a185504f2b8e9cf4fa26680bd2b5bc49db44927b42c3216c89b61b7fb84b64736f6c63430008180033",
  "linkReferences": {},
  "deployedLinkReferences": {}
}